{
  "_format": "hh-sol-artifact-1",
  "contractName": "Disperse",
  "sourceName": "contracts/Disperse.sol",
  "abi": [
    {
      "inputs": [
        {
          "internalType": "contract IERC20",
          "name": "tokenAddress",
          "type": "address"
        },
        {
          "internalType": "address payable[]",
          "name": "recipients",
          "type": "address[]"
        },
        {
          "internalType": "uint256[]",
          "name": "values",
          "type": "uint256[]"
        }
      ],
      "name": "disperseToken",
      "outputs": [],
      "stateMutability": "nonpayable",
      "type": "function"
    }
  ],
  "bytecode": "0x608060405234801561001057600080fd5b506106c4806100206000396000f3fe608060405234801561001057600080fd5b506004361061002b5760003560e01c8063c73a2d6014610030575b600080fd5b61004a600480360381019061004591906103c3565b61004c565b005b60008590506000805b868690508110156100c057848482818110610099577f4e487b7100000000000000000000000000000000000000000000000000000000600052603260045260246000fd5b90506020020135826100ab91906104d9565b915080806100b8906105d1565b915050610055565b508173ffffffffffffffffffffffffffffffffffffffff166323b872dd3330846040518463ffffffff1660e01b81526004016100fe939291906104a2565b602060405180830381600087803b15801561011857600080fd5b505af115801561012c573d6000803e3d6000fd5b505050506040513d601f19601f82011682018060405250810190610150919061039a565b61015957600080fd5b60005b86869050811015610294578273ffffffffffffffffffffffffffffffffffffffff1663a9059cbb8888848181106101bc577f4e487b7100000000000000000000000000000000000000000000000000000000600052603260045260246000fd5b90506020020160208101906101d19190610371565b87878581811061020a577f4e487b7100000000000000000000000000000000000000000000000000000000600052603260045260246000fd5b905060200201356040518363ffffffff1660e01b815260040161022e929190610479565b602060405180830381600087803b15801561024857600080fd5b505af115801561025c573d6000803e3d6000fd5b505050506040513d601f19601f82011682018060405250810190610280919061039a565b50808061028c906105d1565b91505061015c565b5050505050505050565b6000813590506102ad81610649565b92915050565b60008083601f8401126102c557600080fd5b8235905067ffffffffffffffff8111156102de57600080fd5b6020830191508360208202830111156102f657600080fd5b9250929050565b60008083601f84011261030f57600080fd5b8235905067ffffffffffffffff81111561032857600080fd5b60208301915083602082028301111561034057600080fd5b9250929050565b60008151905061035681610660565b92915050565b60008135905061036b81610677565b92915050565b60006020828403121561038357600080fd5b60006103918482850161029e565b91505092915050565b6000602082840312156103ac57600080fd5b60006103ba84828501610347565b91505092915050565b6000806000806000606086880312156103db57600080fd5b60006103e98882890161035c565b955050602086013567ffffffffffffffff81111561040657600080fd5b610412888289016102b3565b9450945050604086013567ffffffffffffffff81111561043157600080fd5b61043d888289016102fd565b92509250509295509295909350565b6104558161059b565b82525050565b6104648161052f565b82525050565b61047381610591565b82525050565b600060408201905061048e600083018561044c565b61049b602083018461046a565b9392505050565b60006060820190506104b7600083018661045b565b6104c4602083018561045b565b6104d1604083018461046a565b949350505050565b60006104e482610591565b91506104ef83610591565b9250827fffffffffffffffffffffffffffffffffffffffffffffffffffffffffffffffff038211156105245761052361061a565b5b828201905092915050565b600061053a82610571565b9050919050565b600061054c82610571565b9050919050565b60008115159050919050565b600061056a8261052f565b9050919050565b600073ffffffffffffffffffffffffffffffffffffffff82169050919050565b6000819050919050565b60006105a6826105ad565b9050919050565b60006105b8826105bf565b9050919050565b60006105ca82610571565b9050919050565b60006105dc82610591565b91507fffffffffffffffffffffffffffffffffffffffffffffffffffffffffffffffff82141561060f5761060e61061a565b5b600182019050919050565b7f4e487b7100000000000000000000000000000000000000000000000000000000600052601160045260246000fd5b61065281610541565b811461065d57600080fd5b50565b61066981610553565b811461067457600080fd5b50565b6106808161055f565b811461068b57600080fd5b5056fea264697066735822122070623f47264e3241cdd3bdc5a1713b7216698071e0b37f994c6944c3b354ff3e64736f6c63430008040033",
  "linkReferences": {},
  "deployedLinkReferences": {}
}