{
  "_format": "hh-sol-artifact-1",
  "contractName": "Disperse",
  "sourceName": "contracts/Disperse.sol",
  "abi": [
    {
      "inputs": [
        {
          "internalType": "address[]",
          "name": "recipients",
          "type": "address[]"
        },
        {
          "internalType": "uint256[]",
          "name": "values",
          "type": "uint256[]"
        }
      ],
      "name": "disperseEther",
      "outputs": [],
      "stateMutability": "payable",
      "type": "function"
    },
    {
      "inputs": [
        {
          "internalType": "contract IERC20",
          "name": "tokenAddress",
          "type": "address"
        },
        {
          "internalType": "address payable[]",
          "name": "recipients",
          "type": "address[]"
        },
        {
          "internalType": "uint256[]",
          "name": "values",
          "type": "uint256[]"
        }
      ],
      "name": "disperseToken",
      "outputs": [],
      "stateMutability": "nonpayable",
      "type": "function"
    }
  ],
  "bytecode": "0x608060405234801561001057600080fd5b50610b0b806100206000396000f3fe6080604052600436106100295760003560e01c8063c73a2d601461002e578063e63d38ed14610057575b600080fd5b34801561003a57600080fd5b50610055600480360381019061005091906106ee565b610073565b005b610071600480360381019061006c9190610659565b6102c5565b005b60008590506000805b868690508110156100e7578484828181106100c0577f4e487b7100000000000000000000000000000000000000000000000000000000600052603260045260246000fd5b90506020020135826100d29190610881565b915080806100df906109aa565b91505061007c565b508173ffffffffffffffffffffffffffffffffffffffff166323b872dd3330846040518463ffffffff1660e01b8152600401610125939291906107cd565b602060405180830381600087803b15801561013f57600080fd5b505af1158015610153573d6000803e3d6000fd5b505050506040513d601f19601f8201168201806040525081019061017791906106c5565b61018057600080fd5b60005b868690508110156102bb578273ffffffffffffffffffffffffffffffffffffffff1663a9059cbb8888848181106101e3577f4e487b7100000000000000000000000000000000000000000000000000000000600052603260045260246000fd5b90506020020160208101906101f89190610630565b878785818110610231577f4e487b7100000000000000000000000000000000000000000000000000000000600052603260045260246000fd5b905060200201356040518363ffffffff1660e01b81526004016102559291906107a4565b602060405180830381600087803b15801561026f57600080fd5b505af1158015610283573d6000803e3d6000fd5b505050506040513d601f19601f820116820180604052508101906102a791906106c5565b5080806102b3906109aa565b915050610183565b5050505050505050565b60005b82518110156103ab5782818151811061030a577f4e487b7100000000000000000000000000000000000000000000000000000000600052603260045260246000fd5b602002602001015173ffffffffffffffffffffffffffffffffffffffff166108fc838381518110610364577f4e487b7100000000000000000000000000000000000000000000000000000000600052603260045260246000fd5b60200260200101519081150290604051600060405180830381858888f19350505050158015610397573d6000803e3d6000fd5b5080806103a3906109aa565b9150506102c8565b5060004790506000811115610402573373ffffffffffffffffffffffffffffffffffffffff166108fc829081150290604051600060405180830381858888f19350505050158015610400573d6000803e3d6000fd5b505b505050565b600061041a61041584610829565b610804565b9050808382526020820190508285602086028201111561043957600080fd5b60005b85811015610469578161044f88826104df565b84526020840193506020830192505060018101905061043c565b5050509392505050565b600061048661048184610855565b610804565b905080838252602082019050828560208602820111156104a557600080fd5b60005b858110156104d557816104bb888261061b565b8452602084019350602083019250506001810190506104a8565b5050509392505050565b6000813590506104ee81610a62565b92915050565b60008135905061050381610a79565b92915050565b600082601f83011261051a57600080fd5b813561052a848260208601610407565b91505092915050565b60008083601f84011261054557600080fd5b8235905067ffffffffffffffff81111561055e57600080fd5b60208301915083602082028301111561057657600080fd5b9250929050565b60008083601f84011261058f57600080fd5b8235905067ffffffffffffffff8111156105a857600080fd5b6020830191508360208202830111156105c057600080fd5b9250929050565b600082601f8301126105d857600080fd5b81356105e8848260208601610473565b91505092915050565b60008151905061060081610a90565b92915050565b60008135905061061581610aa7565b92915050565b60008135905061062a81610abe565b92915050565b60006020828403121561064257600080fd5b6000610650848285016104f4565b91505092915050565b6000806040838503121561066c57600080fd5b600083013567ffffffffffffffff81111561068657600080fd5b61069285828601610509565b925050602083013567ffffffffffffffff8111156106af57600080fd5b6106bb858286016105c7565b9150509250929050565b6000602082840312156106d757600080fd5b60006106e5848285016105f1565b91505092915050565b60008060008060006060868803121561070657600080fd5b600061071488828901610606565b955050602086013567ffffffffffffffff81111561073157600080fd5b61073d88828901610533565b9450945050604086013567ffffffffffffffff81111561075c57600080fd5b6107688882890161057d565b92509250509295509295909350565b61078081610943565b82525050565b61078f816108d7565b82525050565b61079e81610939565b82525050565b60006040820190506107b96000830185610777565b6107c66020830184610795565b9392505050565b60006060820190506107e26000830186610786565b6107ef6020830185610786565b6107fc6040830184610795565b949350505050565b600061080e61081f565b905061081a8282610979565b919050565b6000604051905090565b600067ffffffffffffffff82111561084457610843610a22565b5b602082029050602081019050919050565b600067ffffffffffffffff8211156108705761086f610a22565b5b602082029050602081019050919050565b600061088c82610939565b915061089783610939565b9250827fffffffffffffffffffffffffffffffffffffffffffffffffffffffffffffffff038211156108cc576108cb6109f3565b5b828201905092915050565b60006108e282610919565b9050919050565b60006108f482610919565b9050919050565b60008115159050919050565b6000610912826108d7565b9050919050565b600073ffffffffffffffffffffffffffffffffffffffff82169050919050565b6000819050919050565b600061094e82610955565b9050919050565b600061096082610967565b9050919050565b600061097282610919565b9050919050565b61098282610a51565b810181811067ffffffffffffffff821117156109a1576109a0610a22565b5b80604052505050565b60006109b582610939565b91507fffffffffffffffffffffffffffffffffffffffffffffffffffffffffffffffff8214156109e8576109e76109f3565b5b600182019050919050565b7f4e487b7100000000000000000000000000000000000000000000000000000000600052601160045260246000fd5b7f4e487b7100000000000000000000000000000000000000000000000000000000600052604160045260246000fd5b6000601f19601f8301169050919050565b610a6b816108d7565b8114610a7657600080fd5b50565b610a82816108e9565b8114610a8d57600080fd5b50565b610a99816108fb565b8114610aa457600080fd5b50565b610ab081610907565b8114610abb57600080fd5b50565b610ac781610939565b8114610ad257600080fd5b5056fea2646970667358221220b59583a21f402509edcb773419cea9491f944cab826747627acfe961f14aba2b64736f6c63430008040033",
  "linkReferences": {},
  "deployedLinkReferences": {}
}